:020000040800F2
:100000003004002049010008D11100083B0F00080E
:10001000CD110008E10100083116000800000000C1
:100020000000000000000000000000002115000892
:100030003102000800000000F714000865150008F0
:100040006301000863010008630100086301000800
:1000500063010008630100086301000863010008F0
:1000600063010008630100086301000863010008E0
:1000700063010008630100086301000863010008D0
:1000800063010008630100086301000863010008C0
:1000900063010008630100086301000863010008B0
:1000A00063010008630100086301000863010008A0
:1000B0006301000863010008630100086301000890
:1000C0006301000863010008630100086301000880
:1000D0006301000863010008630100086301000870
:1000E0006301000863010008630100086301000860
:1000F0006301000863010008630100086301000850
:10010000630100086301000863010008630100083F
:10011000630100086301000863010008630100082F
:10012000630100086301000863010008630100081F
:10013000DFF810D000F042F800480047BD1A000870
:10014000AFF300803004002006488047064800478F
:10015000FEE7FEE7FEE7FEE7FEE7FEE7FEE7FEE777
:10016000FEE7FEE7D915000831010008D2B201E030
:1001700000F8012B491EFBD270470022F6E710B5AC
:1001800013460A4604461946FFF7F0FF204610BD05
:1001900030B50B46014600202022012409E021FA57
:1001A00002F59D4205D303FA02F5491B04FA02F554
:1001B0002844151EA2F10102F1DC30BD064C074DAA
:1001C00006E0E06840F0010394E807009847103427
:1001D000AC42F6D3FFF7B0FFA4230008C423000805
:1001E00000BFFEE73FB50F4D39CD8DE83900002245
:1001F0000021002009E00C4B1B5C23B93DF91030B5
:100200001A444B1CD9B2431CD8B20728F3DB00298F
:1002100004DDB2FBF1F0054B186002E00020034B57
:1002200018603FBD94230008200000202800002013
:100230007047000000B58FB03548007830B9102302
:1002400034A20021084601F02DF905E0102332A266
:100250000021084601F026F92D480078012806D132
:1002600010232CA20221002001F01CF905E010232C
:1002700029A20221002001F015F9102327A2002154
:10028000184601F00FF91020032300902548B0F91B
:1002900000200021502001F0C1F8102322A20221E9
:1002A000184601F0FFF81020032300902148B0F910
:1002B00000200221502001F0B1F81F4880791E492A
:1002C00049791D4A12791C4BDB78CDE90132CDE921
:1002D000031019488078009017484378027817A1D6
:1002E0000AA801F005FA10230AAA0421002001F04F
:1002F000D9F8174817A1026805A801F0F9F91023E9
:1003000005AA0621002001F0CDF80FB000BD0000C5
:10031000180000202D3E000020200000537065656D
:10032000643A00000A0000205475726E5F4B703A08
:10033000000000000C00002020000020533A25643B
:100340002564256425642564256425640000000077
:1003500028000020506F733A2534640010B5022144
:10036000144800F0DFF9144908700421114800F026
:10037000D9F91149487008210E4800F0D3F90E4907
:10038000887010210B4800F0CDF90B49C87020216E
:10039000084800F0C7F9084908714021054800F0F5
:1003A000C1F9054948718021024800F0BBF90249B2
:1003B000887110BD000801402000002070B504467F
:1003C00000F0BEF906462546681C10B104480078C6
:1003D000054400BF00F0B4F9801BA842FAD370BDF9
:1003E000080000202DE9F847024600239C467BE1E7
:1003F0004FF0010808FA03F4D1F8008008EA04007D
:10040000A0427DD1DFF8F4A2D1F80480A8EB0A095C
:10041000D0453AD014DCB8F1030F50D009DCB8F164
:10042000000F31D0B8F1010F1CD0B8F1020F49D143
:1004300020E0B8F1110F18D0B8F1120F42D11EE030
:10044000B9F5881F25D006DCB9F5803F20D0B9F575
:10045000801F37D11AE0B9F5001F18D0B9F5041F75
:1004600030D117E0D1F80CC02DE0D1F80C8008F1A4
:10047000040C28E0D1F80C8008F1080C23E0D1F836
:100480000C8008F10C0C1EE000BF00BF00BF00BFD5
:1004900000BF00BFD1F80880B8F1000F02D14FF0C3
:1004A000040C0BE0D1F80880B8F1010F03D14FF034
:1004B000080C146102E04FF0080C546103E04FF0A7
:1004C000000C00E000BF00BFFF2801D8904601E00B
:1004D00002F104084646FF2802D84FEA830803E0E9
:1004E000A3F108084FEA88084746D6F800804FF085
:1004F0000F0909FA07F928EA09080CFA07F900E0D8
:100500007AE048EA0908C6F80080D1F8048008F0CB
:100510008058B8F1805F6FD100BFDFF8E481D8F870
:10052000188048F00108DFF8D891C9F81880C8464B
:10053000D8F8188008F00108CDF8008000BF00BF8F
:100540004FEAB9384FEA930958F829504FEA8378AF
:100550004FEA18794FF00F0808FA09F825EA08055C
:10056000DFF8A081424502D14FF0000824E0DFF817
:100570009881424502D14FF001081DE0DFF88C81DF
:10058000424502D14FF0020816E0DFF8848142456F
:1005900002D14FF003080FE0DFF87881424502D125
:1005A0004FF0040808E0DFF87081424502D14FF0B7
:1005B000050801E04FF006084FEA83794FEA197900
:1005C00008FA09F848EA0505DFF850814FEA93096F
:1005D00048F82950D1F8048008F48038B8F5803FF5
:1005E0000BD1DFF83C81D8F8008048EA0008DFF83A
:1005F0003091C9F800800AE075E0DFF82481D8F86E
:10060000008028EA0008DFF81891C9F80080D1F8C6
:10061000048008F40038B8F5003F0ED1DFF80081FF
:1006200008F10408D8F8008048EA0008DFF8F090E4
:1006300009F10409C9F800800DE0DFF8E48008F151
:100640000408D8F8008028EA0008DFF8D49009F1FF
:100650000409C9F80080D1F8048008F48018B8F5BE
:10066000801F0ED1DFF8B88008F10808D8F80080A4
:1006700048EA0008DFF8A89009F10809C9F80080E5
:100680000DE0DFF89C8008F10808D8F8008028EA1F
:100690000008DFF88C9009F10809C9F80080D1F84A
:1006A000048008F40018B8F5001F0ED1DFF8708040
:1006B00008F10C08D8F8008048EA0008DFF86090DC
:1006C00009F10C09C9F800800DE0DFF8548008F149
:1006D0000C08D8F8008028EA0008DFF8449009F1F7
:1006E0000C09C9F800805B1CD1F8008028FA03F8D7
:1006F000B8F1000F7FF47CAEBDE8F8870000111060
:100700000010024000080140000C014000100140B0
:100710000014014000180140001C01400800014085
:1007200000040140024693680B400BB1012000E039
:10073000002070470AB1016101E00B0403617047BA
:10074000014800687047000000000020034800686E
:1007500003490978084401490860704700000020F7
:100760000800002010B50848006840F01000064955
:100770000860032000F070F80F2000F007F800F088
:100780002BF8002010BD00000020024070B5044688
:100790000E4800784FF47A71B1FBF0F00C4909680B
:1007A000B1FBF0F5284600F0AEFB08B1012070BDAA
:1007B000102C07D200222146501E00F00EF80548EA
:1007C000046001E00120F2E70020F0E708000020CB
:1007D000100000200400002070472DE9F05F8046E3
:1007E0000D461646002700F097FF074639462A4671
:1007F000334601F00700C0F1070ABAF1040F02D92D
:100800004FF0040A01E0C0F1070AD14600F1040AE2
:10081000BAF1070F02D24FF0000A01E0A0F1030A7B
:10082000D4464FF0010A0AFA09FAAAF1010A0AEAC3
:10083000020A0AFA0CFA4FF0010B0BFA0CFBABF1AF
:10084000010B0BEA030B4AEA0B042146404600F079
:100850006BFFBDE8F09F000000BF00F00702064BF1
:1008600019684FF6FF031940044B0B4343EA02217A
:10087000014B196000BF70470CED00E00000FA0565
:1008800070B504460D460CB9012070BD5A48006889
:1008900000F00700A8420ED25748006820F0070079
:1008A0002843554908600846006800F00700A84240
:1008B00001D00120E9E7207800F0020002281DD1D4
:1008C000207800F00400042805D14C48406840F42A
:1008D000E0604A494860207800F00800082805D107
:1008E0004648406840F46050444948604348406886
:1008F00020F0F000A168084340494860207800F0EB
:10090000010078B36068012806D13C48006800F413
:10091000003090B90120B8E76068022806D1374856
:10092000006800F0007040B90120AEE7334800686D
:1009300000F0020008B90120A7E73048406820F025
:100940000300616808432D494860FFF7F9FE064639
:1009500009E0FFF7F5FE801B41F28831884202D999
:10096000032092E707E02548406800F00C0061682A
:10097000B0EB810FEDD12048006800F00700A842DD
:100980000ED91D48006820F0070028431A49086066
:100990000846006800F00700A84201D0012074E773
:1009A000207800F00400042807D11448406820F49F
:1009B000E060E168084311494860207800F00800D1
:1009C000082808D10D48406820F46050216940EAA9
:1009D000C1000A49486000F019F808494968C1F3A4
:1009E0000311074A515CC840064908600648006880
:1009F000FFF7CCFE002048E7002002400010024034
:100A0000621B00081000002004000020F0B585B033
:100A10000FF26C0C9CE8E01001A8A0E8E0101CA507
:100A20002D68009500210022002300240020194D8C
:100A3000696801F00C05F5B1042D02D0082D19D11B
:100A400001E0154819E001ADC1F38346AC5D01F446
:100A5000803555B10F4D6D68C5F340451DF8052033
:100A60000D4D6543B5FBF2F302E00C4D04FB05F3BD
:100A7000184602E000BF084800BF00BF05B0F0BD47
:100A800002030405060708090A0B0C0D0E0F1010CF
:100A9000010200000010024000127A0000093D002F
:100AA000F8B504460CB90120F8BD207800F001002B
:100AB000002878D0F848406800F00C0004280CD0DA
:100AC000F548406800F00C00082811D1F248406851
:100AD00000F48030B0F5803F0AD1EF48006800F4A0
:100AE000003000285FD0606800285CD10120DBE77F
:100AF00000BF6068B0F5803F06D1E748006840F469
:100B00008030E549086028E0606858B9E24800682C
:100B100020F48030E04908600846006820F4802016
:100B200008601AE06068B0F5A02F0BD1DA480068C1
:100B300040F48020D84908600846006840F48030BE
:100B400008600AE0D448006820F48030D249086088
:100B50000846006820F48020086000BF606888B103
:100B6000FFF7EEFD054606E0FFF7EAFD401B6428AF
:100B700001D9032098E7C848006800F40030002835
:100B8000F2D010E0FFF7DCFD054606E0FFF7D8FDE8
:100B9000401B642801D9032086E7BF48006800F4A1
:100BA00000300028F2D1207800F00200022857D14E
:100BB000B948406800F00C0050B1B748406800F0F8
:100BC0000C00082818D1B448406800F4803098B967
:100BD000B148006800F0020020B12069012801D06E
:100BE000012061E7AC48006820F0F800616940EA44
:100BF000C100A949086033E02069E8B10120A74994
:100C00000860FFF79DFD054606E0FFF799FD401BD4
:100C1000022801D9032047E79F48006800F002003E
:100C20000028F2D09C48006820F0F800616940EA92
:100C3000C1009949086013E0002098490860FFF757
:100C40007FFD054606E0FFF77BFD401B022801D92A
:100C5000032029E79048006800F002000028F2D144
:100C6000207800F0080008282DD1A069B8B1012033
:100C70008B490860FFF764FD054606E0FFF760FD5D
:100C8000401B022801D903200EE78348406A00F088
:100C900002000028F2D0012000F02EFC13E000201A
:100CA0007F490860FFF74CFD054606E0FFF748FD69
:100CB000401B022801D90320F6E67748406A00F07D
:100CC00002000028F2D1207800F00400042873D13B
:100CD00000277148C06900F0805070B900BF6E48AD
:100CE000C06940F080506C49C8610846C06900F096
:100CF0008050009000BF00BF01276A48006800F4E0
:100D00008070B0B96748006840F480706549086039
:100D1000FFF716FD054606E0FFF712FD401B6428AD
:100D200001D90320C0E65F48006800F48070002805
:100D3000F2D000BFE068012806D15748006A40F0B1
:100D400001005549086227E0E06858B95248006A36
:100D500020F00100504908620846006A20F00400B3
:100D6000086219E0E06805280BD14B48006A40F0A2
:100D70000400494908620846006A40F00100086220
:100D80000AE04548006A20F001004349086208462D
:100D9000006A20F00400086200BFE068A0B1FFF71D
:100DA000CFFC054609E0FFF7CBFC401B41F2883140
:100DB000884202D9032077E622E03748006A00F033
:100DC00002000028EFD012E0FFF7BAFC054608E069
:100DD000FFF7B6FC401B41F28831884201D903205D
:100DE00062E62D48006A00F002000028F0D1012FD1
:100DF00005D12948C06920F080502749C86100BF4B
:100E0000E069C8B32448406800F00C00082860D0AE
:100E1000E069022848D1002020490866FFF790FCCD
:100E2000054606E0FFF78CFC401B022801D9032091
:100E30003AE61948006800F000700028F2D1206AF4
:100E4000B0F5803F07D11448406820F40030A16815
:100E5000084311494860D4E9080108430E4949682C
:100E600021F4741108430C49486001200B490866BD
:100E7000FFF766FC054607E03DE0FFF761FC401B1D
:100E8000022801D903200FE60348006800F0007033
:100E90000028F2D02FE00000001002400000424283
:100EA0008004424200700040002014490866FFF7A9
:100EB00047FC054606E0FFF743FC401B022801D92A
:100EC0000320F1E50E48006800F000700028F2D120
:100ED00011E0E069012800D1E6E50948466806F41A
:100EE0008031206A814204D106F47011606A814227
:100EF00001D00120D8E50020D6E5000000004242E4
:100F000000100240704770B504462546681EB0F1D7
:100F1000807F01D301200FE0681E4FF0E02148617F
:100F20000F214FF0FF3000F0FFFB00204FF0E021D9
:100F3000886107200861002070BD00BFFEE7000047
:100F400010B5012211020A48FFF7F4FB01225102F9
:100F50000748FFF7EFFB00224FF400710448FFF74A
:100F6000E9FB00224FF480710148FFF7E3FB10BD5D
:100F70000008014010B5012211020748FFF7DAFB13
:100F800000224FF400710448FFF7D4FB0122510204
:100F90000148FFF7CFFB10BD0008014010B501224A
:100FA00011020548FFF7C6FB00224FF4807102488A
:100FB000FFF7C0FB10BD0000000801403148007879
:100FC00050B131480078401C2F490870084600781D
:100FD000012801DD002008702C48007810B32A4851
:100FE000007810B101281CD10DE029480088C01CF0
:100FF00000B2274908800846B0F90000642801DDE6
:10100000642008800DE023480088C01C00B22149FC
:1010100008800846B0F90000C82801DDC820088013
:1010200000BF00BF1C48007810B31748007810B10B
:1010300001281CD10DE016480088801E00B214491A
:1010400008800846B0F90000002801DA0020088076
:101050000DE010480088801E00B20E490880084646
:10106000B0F90000002801DA0020088000BF00BFAE
:1010700000200A49087003490870074908700349AD
:10108000087070471600002018000020140000208F
:101090000A0000200C00002015000020170000208E
:1010A00000B585B000BF0D48806940F004000B49D1
:1010B00088610846806900F00400009000BF00BF0E
:1010C000002002904FF4705001900120039001A97C
:1010D0000348FFF787F905B000BD0000001002408B
:1010E0000008014010B54FF480612F48FFF71AFB4C
:1010F00010B901202D4908702C48007858B14FF4E0
:1011000080612948FFF70EFB28B1002027490870AD
:101110000120274908704FF400612348FFF702FBC4
:1011200010B90120234908702248007858B14FF4C3
:1011300000611D48FFF7F6FA28B100201D4908702C
:1011400001201D4908704FF480511748FFF7EAFA53
:1011500010B90120194908701848007858B14FF4A7
:1011600080511148FFF7DEFA28B1002013490870BA
:101170000120134908704FF400510B48FFF7D2FAD1
:1011800010B901200F4908700E48007858B14FF48B
:1011900000510548FFF7C6FA28B100200949087038
:1011A00001200949087010BD000801401B00002003
:1011B000160000201A000020140000201900002052
:1011C000150000201C0000201700002000BFFEE7D3
:1011D000704770B5002418E004F1B000002100F061
:1011E0007EF90021084600F07AF90021102000F075
:1011F00076F9002505E00121002000F070F9681C57
:10120000C5B2802DF7DB601CC4B2082CE4DB70BDD6
:1012100000B585B00020019002900390049000BFBB
:101220004948806940F00400474988610846806960
:1012300000F00400009000BF00BF4FF44070019028
:1012400001200290002003900320049001A93F4850
:10125000FFF7C8F801224FF440713C48FFF76AFAE3
:10126000C820FFF7ABF80021AE2000F038F90021CC
:10127000084600F034F90021102000F030F9002178
:10128000402000F02CF90021B02000F028F90021C6
:10129000812000F024F90021FF2000F020F9002136
:1012A000A12000F01CF90021A62000F018F900216F
:1012B000A82000F014F900213F2000F010F90021CF
:1012C000C82000F00CF90021D32000F008F900211B
:1012D000084600F004F90021D52000F000F90021B3
:1012E000802000F0FCF80021D82000F0F8F8002160
:1012F000052000F0F4F80021D92000F0F0F80021DA
:10130000F12000F0ECF80021DA2000F0E8F80021EC
:10131000122000F0E4F80021DB2000F0E0F80021CA
:10132000302000F0DCF800218D2000F0D8F80021FA
:10133000142000F0D4F80021AF2000F0D0F8FFF71F
:1013400048FF05B000BD0000001002400008014049
:1013500070B504460D4605F1B000002100F0BFF85D
:10136000102141EA1410002100F0B9F804F00F0038
:10137000002100F0B4F870BD2DE9F04707460E4695
:101380009046994600250024A8F12000C5B27F2F81
:1013900002DD0027B01CC6B2B9F1100F24D13146CE
:1013A0003846FFF7D5FF002408E004EB0511194A81
:1013B000505C012100F093F8601CC4B2082CF4DBEF
:1013C000701CC1B23846FFF7C3FF002409E004EBEC
:1013D000051108310F4A505C012100F080F8601CB3
:1013E000C4B2082CF3DB12E031463846FFF7B0FFF9
:1013F00000240AE005EB4501074A02EB4101085DC4
:10140000012100F06CF8601CC4B2062CF2DBBDE8D0
:10141000F0870000A21D00087A1B00082DE9FF5F7D
:10142000074691461E460E9D4FF0000A002435E007
:10143000301B401EC1B20A2000F088FBB9FBF0F05F
:101440000A21B0FBF1F201FB1208BAF1000F14D12E
:10145000701EA04211DDB8F1000F0CD1AB4605EBB8
:10146000DB71491001FB0471C8B22B46202201999F
:10147000FFF782FF10E04FF0010AAB4605EBDB718E
:10148000491001FB0471C8B208F13001CAB22B4601
:101490000199FFF771FF00BF601CC4B2B442C7DB03
:1014A000BDE8FF9F2DE9F04104460F4615469846DA
:1014B00000260FE0AA5D434639462046FFF75CFF51
:1014C00004F10800C4B2782C02DD0024B81CC7B2B5
:1014D000701CC6B2A85D0028ECD1BDE8F08170B5E3
:1014E00004460D461DB1E0B200F0ECF802E0E0B2B7
:1014F00000F0D2F870BD704708B508490968C908FE
:101500004FF47A72B1FBF2F14143009100BF00BF8A
:1015100000994A1E00920029F9D108BD1000002050
:101520007047000000B585B000BF0C48806940F0EE
:1015300004000A4988610846806900F004000090B0
:1015400000BF00BF00200290FE2001900020039009
:1015500001A90348FEF746FF05B000BD0010024098
:101560000008014010B5FFF7F1F8FFF7CBFC10BD04
:1015700000B58FB014210AA8FEF7FFFD28216846A8
:10158000FEF7FBFD01200090000401900020039075
:10159000012004900020029002200790C1030891CE
:1015A0004FF4E01109916846FFF77AFA08B100BFDD
:1015B000FEE70F200A9002200B9000200C900E9066
:1015C0004FF480600D9002210AA8FFF759F908B185
:1015D00000BFFEE70FB000BD1148006840F00100F9
:1015E0000F490860084640680E4908400C494860A9
:1015F000084600680C490840094908600846006828
:1016000020F4802008600846406820F4FE0048600E
:101610004FF41F008860C803044908607047000049
:10162000001002400000FFF8FFFFF6FE08ED00E0AA
:1016300000BFFEE72DE9F04105462C4600224FF49D
:1016400080711448FFF776F800261FE0274607F060
:101650008007802F05D1012251020E48FFF76AF85A
:1016600005E000224FF400710A48FFF763F86006B6
:10167000040E012211020748FFF75CF800224FF424
:1016800080710448FFF756F8701CC6B2082EDDDBE7
:10169000BDE8F0810008014010B50446FFF750FC9A
:1016A0007820FFF7C7FFFFF779FC0020FFF7C2FFA4
:1016B000FFF774FC2046FFF7BDFFFFF76FFCFFF755
:1016C00059FC10BD10B50446FFF73AFC7820FFF72F
:1016D000B1FFFFF763FC4020FFF7ACFFFFF75EFCB4
:1016E0002046FFF7A7FFFFF759FCFFF743FC10BDAB
:1016F0000FB4084B10B504A902AA039800F038F8FB
:10170000044602A9002000F0D4F9204610BC5DF880
:1017100014FB0000B31A000802480068C0F302205E
:10172000704700000CED00E010B5002804DB0A074C
:10173000130E054A135406E00A07140E034A00F07C
:101740000F031B1FD45410BD00E400E018ED00E0AF
:1017500002E008C8121F08C1002AFAD1704770477A
:10176000002001E001C1121F002AFBD170470000D8
:101770002DE9FF4F8BB088460546002606E0252858
:101780000BD0DDE90D1290476D1C761C28780028DF
:10179000F5D10FB03046BDE8F08F0024A146A24637
:1017A0000122AE4900E0044315F8013F203B02FA54
:1017B00003F00842F7D128782A2810D06FF02F02C2
:1017C0002878A0F13001092915D809EB890102EB2D
:1017D000410144F0020400EB01096D1CF0E758F8E8
:1017E000041B5FEA010903D544F40054C9F1000960
:1017F00044F002046D1C28782E2817D115F8010F2B
:1018000044F004042A280ED06FF02F022878A0F1AB
:10181000300109290AD80AEB8A0102EB410100EBE9
:10182000010A6D1CF2E758F804AB6D1C28786C288F
:101830000FD006DC4C2817D068280DD06A2814D1A8
:1018400004E0742810D07A280FD10DE044F400147D
:101850000AE044F4801401E044F4401469788142C1
:1018600002D104F580146D1C6D1C2878692865D0A0
:1018700006DC00288DD0632827D0642806D15DE0DF
:101880006E2808D073282AD0752877D0DDE90D128C
:101890009047761CE0E0C4F30250022809D00328E8
:1018A0000DD0D8F8001004280DD00E6008F10408FF
:1018B000D2E0D8F80010F217C1E90062F6E7D8F8D4
:1018C00000100E80F2E70E70F0E718F8041B8DF898
:1018D000001000208DF80100EB46012003E058F8CD
:1018E00004BB4FF0FF3061074FF0000701D40AE05E
:1018F0007F1C57450DDA8742FADB1BF807100029D9
:10190000F6D106E07F1C8742FCDB1BF8071000299C
:10191000F8D1DDE90D23A9EB07008146214600F04F
:10192000B1F83044C61904E0DDE90D121BF8010BD3
:1019300090477F1EF8D22146484688E058F8040BAD
:10194000C4F302514FF00A0B032900D100B204295D
:1019500000D140B2002802DA40422D2102E02105E8
:1019600005D52B218DF82410012104E006E0E107C4
:1019700010D02021F6E708AF089113E058F8040BC7
:10198000C4F302514FF00A0B032900D180B204299D
:1019900000D1C0B20021EEE75946FEF7F9FB303125
:1019A00007F8011D0028F7D1ADEB070000F1200B6F
:1019B000600702D524F4803401E04FF0010ADA45D3
:1019C00002DDAAEB0B0000E00020824600EB0B01D9
:1019D00008980144A9EB01000A90E00306D4DDE970
:1019E0000D2321460A9800F04DF806444FF00009F7
:1019F00008E009A911F80900DDE90D12904709F185
:101A00000109761C08998945F3DBE0030CD5DDE973
:101A10000D2321460A9800F035F8064404E0DDE97C
:101A20000D1230209047761CBAF10001AAF1010A8C
:101A3000F5DC05E0DDE90D1217F8010B9047761C87
:101A4000BBF10001ABF1010BF4DC0A982146DDE9A2
:101A50000D2300F005F806446D1C97E609280100E7
:101A60002DE9F041044600251E461746880404D49B
:101A700005E039462020B0476D1C641EF9D5284684
:101A8000BDE8F0812DE9F041044600251E46904650
:101A9000C80301D5302700E02027880404D505E0DD
:101AA00041463846B0476D1C641EF9D52846BDE84E
:101AB000F0810A68531C0B601070704708B5FEF780
:101AC00051FEFFF755FDFFF7EBFAFFF72BFDFFF790
:101AD0009FFB1920FEF75AFE2CE0FFF703FBFFF7F0
:101AE0006DFAFEF73BFCFEF77DFBFEF7A3FB6420DF
:101AF000FEF764FC102310A200210846FFF7D2FC79
:101B00001020032300900E48B0F900200021382057
:101B1000FFF784FC10230BA202210020FFF7C2FC78
:101B20001020032300900848B0F90020022138203B
:101B3000FFF774FCD1E7000053706565643A00005C
:101B40000A0000204B703A000C00002010B502463D
:101B5000012000E050430B1EA1F10104E1B2F9D1D4
:101B600010BD000000000000000001020304060791
:101B7000080900000000010203040000000000004A
:101B80000000002F000000000700070000147F1471
:101B90007F1400242A7F2A1200626408132300366F
:101BA0004955225000000503000000001C2241009E
:101BB000000041221C000014083E08140008083EE2
:101BC0000808000000A060000008080808080000DD
:101BD00060600000002010080402003E5149453EAC
:101BE0000000427F400000426151494600214145CA
:101BF0004B31001814127F10002745454539003C31
:101C00004A494930000171090503003649494936FE
:101C100000064949291E00003636000000005636ED
:101C200000000008142241000014141414140000D1
:101C30004122140800020151090600324959513E5F
:101C4000007C1211127C007F49494936003E414117
:101C50004122007F4141221C007F49494941007FC8
:101C600009090901003E4149497A007F0808087FB7
:101C70000000417F4100002040413F01007F0814E7
:101C80002241007F40404040007F020C027F007FE5
:101C90000408107F003E4141413E007F09090906CA
:101CA000003E4151215E007F0919294600464949FD
:101CB00049310001017F0101003F4040403F001FCA
:101CC0002040201F003F4038403F00631408146349
:101CD00000070870080700615149454300007F4133
:101CE000410000552A552A55000041417F0000045B
:101CF0000201020400404040404000000102040094
:101D0000002054545478007F4844443800384444F8
:101D1000442000384444487F003854545418000884
:101D20007E0901020018A4A4A47C007F08040478A2
:101D30000000447D4000004080847D00007F10282A
:101D400044000000417F4000007C04180478007CBF
:101D50000804047800384444443800FC242424183F
:101D60000018242418FC007C08040408004854547B
:101D7000542000043F444020003C4040207C001C94
:101D80002040201C003C4030403C004428102844A7
:101D9000001CA0A0A07C004464544C4414141414EF
:101DA000141400000000000000000000000000000B
:101DB0000000000000F800000000000000333000C8
:101DC000000000100C06100C0600000000000000CF
:101DD000000040C07840C0784000043F04043F0445
:101DE0000400007088FC08300000001820FF211E4D
:101DF0000000F008F000E018000000211C031E2184
:101E00001E0000F00888700000001E2123241927FE
:101E1000211010160E00000000000000000000005D
:101E20000000000000E01804020000000007182075
:101E3000400000020418E0000000004020180700E5
:101E40000000404080F0804040000202010F01028B
:101E50000200000000F0000000000101011F01016C
:101E60000100000000000000000080B070000000D1
:101E7000000000000000000000000001010101015D
:101E800001010000000000000000003030000000F0
:101E900000000000000080601804006018060100C7
:101EA000000000E010080810E000000F10202010D3
:101EB0000F00001010F8000000000020203F20203C
:101EC00000000070080808887000003028242221D3
:101ED0003000003008888848300000182020201189
:101EE0000E000000C02010F8000000070424243F6A
:101EF000240000F808888808080000192120201113
:101F00000E0000E0108888180000000F112020113A
:101F10000E0000380808C83808000000003F000024
:101F200000000070880808887000001C222121220F
:101F30001C0000E010080810E0000000312222110F
:101F40000F00000000C0C0000000000000303000A2
:101F50000000000000800000000000008060000021
:101F6000000000008040201008000001020408105A
:101F70002000404040404040400004040404040469
:101F80000400000810204080000000201008040217
:101F90000100007048080808F00000000030360119
:101FA0000000C030C828E810E000071827242314D8
:101FB0000B000000C038E0000000203C2302022794
:101FC000382008F8888888700000203F20202011E1
:101FD0000E00C0300808080838000718202020101C
:101FE000080008F808080810E000203F2020201012
:101FF0000F0008F88888E8081000203F20202320E0
:10200000180008F88888E8081000203F2000030026
:102010000000C03008080838000007182020221EE1
:10202000020008F808000008F808203F21010121FB
:102030003F20000808F8080800000020203F20206A
:10204000000000000808F8080800C08080807F00B9
:10205000000008F888C028180800203F2001263812
:10206000200008F8080000000000203F2020202069
:10207000300008F8F800F8F80800203F003F003F63
:10208000200008F830C00008F808203F200007189A
:102090003F00E01008080810E0000F10202020107A
:1020A0000F0008F808080808F000203F210101018E
:1020B0000000E01008080810E0000F182424385031
:1020C0004F0008F8888888887000203F2000030CA3
:1020D00030200070880808083800003820212122AC
:1020E0001C00180808F8080818000000203F20000D
:1020F000000008F808000008F808001F2020202031
:102100001F000878880000C83808000007380E0152
:102110000000F80800F80008F800033C0700073C3E
:102120000300081868808068180820302C03032CEE
:1021300030200838C800C83808000000203F2000C0
:10214000000010080808C838080020382621202080
:102150001800000000FE020202000000007F404064
:102160004000000C30C000000000000000010638F4
:10217000C00000020202FE000000004040407F005C
:102180000000000004020202040000000000000041
:10219000000000000000000000008080808080803F
:1021A0008080000202040000000000000000000027
:1021B000000000008080808000000019242222227C
:1021C0003F2008F8008080000000003F112020110F
:1021D0000E000000008080800000000E11202020F2
:1021E0001100000000808088F800000E11202010EF
:1021F0003F200000808080800000001F22222222D9
:102200001300008080F0888888180020203F20205C
:1022100000000000808080808000006B9494949384
:10222000600008F8008080800000203F210000202E
:102230003F2000809898000000000020203F2020D0
:102240000000000000809898000000C08080807F1F
:10225000000008F8000080808000203F24022D301C
:102260002000000808F8000000000020203F202087
:1022700000008080808080808000203F20003F2000
:10228000003F8080008080800000203F21000020EF
:102290003F200000808080800000001F2020202040
:1022A0001F00808000808000000080FFA12020119E
:1022B0000E000000008080808000000E112020A011
:1022C000FF80808080008080800020203F212000CF
:1022D00001000000808080808000003324242424BA
:1022E0001900008080E0808000000000001F202096
:1022F00000008080000000808000001F202020104F
:102300003F20808080000080808000010E30080621
:10231000010080800080008080800F300C030C3032
:102320000F0000808000808080000020312E0E3160
:102330002000808080000080808080818E70180660
:10234000010000808080808080000021302C2221CC
:10235000300000000000807C020200000000003F0E
:10236000404000000000FF00000000000000FF00EF
:1023700000000002027C800000000040403F00009E
:102380000000000601010202040400000000000039
:1023900000000000D4FE38FF9CFF00006400C8006D
:1023A0002C010000C4230008000000202C000000C5
:1023B00050170008F02300082C000020040400003F
:1023C0006017000800000000100000000100190064
:1023D000320000000024F4000000000000000000B3
:1023E00000000000000000000000000000000000ED
:0400000508000131BD
:00000001FF
